{
  "contractName": "rootVerify",
  "abi": [
    {
      "stateMutability": "payable",
      "type": "receive",
      "payable": true
    },
    {
      "inputs": [
        {
          "internalType": "string",
          "name": "_r_name",
          "type": "string"
        },
        {
          "internalType": "uint256[]",
          "name": "_rootLocation",
          "type": "uint256[]"
        }
      ],
      "name": "setRoot",
      "outputs": [],
      "stateMutability": "nonpayable",
      "type": "function"
    },
    {
      "inputs": [
        {
          "internalType": "string",
          "name": "_r_name",
          "type": "string"
        }
      ],
      "name": "getRootName",
      "outputs": [
        {
          "internalType": "string",
          "name": "",
          "type": "string"
        }
      ],
      "stateMutability": "view",
      "type": "function",
      "constant": true
    },
    {
      "inputs": [
        {
          "internalType": "string",
          "name": "_r_name",
          "type": "string"
        }
      ],
      "name": "getRootHashs",
      "outputs": [
        {
          "internalType": "uint256[]",
          "name": "",
          "type": "uint256[]"
        }
      ],
      "stateMutability": "view",
      "type": "function",
      "constant": true
    },
    {
      "inputs": [
        {
          "internalType": "string",
          "name": "_d_name",
          "type": "string"
        }
      ],
      "name": "setDipper",
      "outputs": [],
      "stateMutability": "nonpayable",
      "type": "function"
    },
    {
      "inputs": [
        {
          "internalType": "address",
          "name": "_addr",
          "type": "address"
        }
      ],
      "name": "getDipper",
      "outputs": [
        {
          "internalType": "string",
          "name": "",
          "type": "string"
        }
      ],
      "stateMutability": "view",
      "type": "function",
      "constant": true
    },
    {
      "inputs": [
        {
          "internalType": "uint256",
          "name": "_currentLocation",
          "type": "uint256"
        }
      ],
      "name": "currentLocation",
      "outputs": [
        {
          "internalType": "uint256",
          "name": "",
          "type": "uint256"
        }
      ],
      "stateMutability": "nonpayable",
      "type": "function"
    },
    {
      "inputs": [
        {
          "internalType": "string",
          "name": "_r_name",
          "type": "string"
        },
        {
          "internalType": "uint256",
          "name": "_currentLocation",
          "type": "uint256"
        }
      ],
      "name": "verifyLocation",
      "outputs": [
        {
          "internalType": "bool",
          "name": "",
          "type": "bool"
        }
      ],
      "stateMutability": "nonpayable",
      "type": "function"
    }
  ],
  "bytecode": "0x608060405234801561001057600080fd5b50610f67806100206000396000f3fe6080604052600436106100745760003560e01c80636ada80c51161004e5780636ada80c514610137578063ac6622d814610174578063c5f9f8a41461019d578063ce951864146101c65761007b565b80633343c105146100805780633dabfdf3146100bd57806352753f69146100fa5761007b565b3661007b57005b600080fd5b34801561008c57600080fd5b506100a760048036038101906100a29190610831565b610203565b6040516100b491906108f7565b60405180910390f35b3480156100c957600080fd5b506100e460048036038101906100df9190610a4e565b6102d6565b6040516100f191906108f7565b60405180910390f35b34801561010657600080fd5b50610121600480360381019061011c9190610a4e565b610389565b60405161012e9190610b5f565b60405180910390f35b34801561014357600080fd5b5061015e60048036038101906101599190610bad565b610402565b60405161016b9190610be9565b60405180910390f35b34801561018057600080fd5b5061019b60048036038101906101969190610a4e565b610493565b005b3480156101a957600080fd5b506101c460048036038101906101bf9190610ccc565b6104ec565b005b3480156101d257600080fd5b506101ed60048036038101906101e89190610d44565b6105db565b6040516101fa9190610dbb565b60405180910390f35b60606000808373ffffffffffffffffffffffffffffffffffffffff1673ffffffffffffffffffffffffffffffffffffffff168152602001908152602001600020600001805461025190610e05565b80601f016020809104026020016040519081016040528092919081815260200182805461027d90610e05565b80156102ca5780601f1061029f576101008083540402835291602001916102ca565b820191906000526020600020905b8154815290600101906020018083116102ad57829003601f168201915b50505050509050919050565b60606001826040516102e89190610e73565b9081526020016040518091039020600001805461030490610e05565b80601f016020809104026020016040519081016040528092919081815260200182805461033090610e05565b801561037d5780601f106103525761010080835404028352916020019161037d565b820191906000526020600020905b81548152906001019060200180831161036057829003601f168201915b50505050509050919050565b606060018260405161039b9190610e73565b90815260200160405180910390206001018054806020026020016040519081016040528092919081815260200182805480156103f657602002820191906000526020600020905b8154815260200190600101908083116103e2575b50505050509050919050565b6000816000803373ffffffffffffffffffffffffffffffffffffffff1673ffffffffffffffffffffffffffffffffffffffff168152602001908152602001600020600101819055506000803373ffffffffffffffffffffffffffffffffffffffff1673ffffffffffffffffffffffffffffffffffffffff168152602001908152602001600020600101549050919050565b806000803373ffffffffffffffffffffffffffffffffffffffff1673ffffffffffffffffffffffffffffffffffffffff16815260200190815260200160002060000190805190602001906104e89291906106cf565b5050565b6040518060400160405280838152602001828152506001836040516105119190610e73565b9081526020016040518091039020600082015181600001908051906020019061053b9291906106cf565b506020820151816001019080519060200190610558929190610755565b509050506000803373ffffffffffffffffffffffffffffffffffffffff1673ffffffffffffffffffffffffffffffffffffffff168152602001908152602001600020600201829080600181540180825580915050600190039060005260206000200160009091909190915090805190602001906105d69291906106cf565b505050565b60006105e682610402565b5060006001846040516105f99190610e73565b908152602001604051809103902060010180548060200260200160405190810160405280929190818152602001828054801561065457602002820191906000526020600020905b815481526020019060010190808311610640575b505050505090506000805b82518110156106b1578483828151811061067c5761067b610e8a565b5b60200260200101511461068f578161069d565b818061069a90610ee8565b92505b5080806106a990610ee8565b91505061065f565b5060008114156106c25760006106c5565b60015b9250505092915050565b8280546106db90610e05565b90600052602060002090601f0160209004810192826106fd5760008555610744565b82601f1061071657805160ff1916838001178555610744565b82800160010185558215610744579182015b82811115610743578251825591602001919060010190610728565b5b50905061075191906107a2565b5090565b828054828255906000526020600020908101928215610791579160200282015b82811115610790578251825591602001919060010190610775565b5b50905061079e91906107a2565b5090565b5b808211156107bb5760008160009055506001016107a3565b5090565b6000604051905090565b600080fd5b600080fd5b600073ffffffffffffffffffffffffffffffffffffffff82169050919050565b60006107fe826107d3565b9050919050565b61080e816107f3565b811461081957600080fd5b50565b60008135905061082b81610805565b92915050565b600060208284031215610847576108466107c9565b5b60006108558482850161081c565b91505092915050565b600081519050919050565b600082825260208201905092915050565b60005b8381101561089857808201518184015260208101905061087d565b838111156108a7576000848401525b50505050565b6000601f19601f8301169050919050565b60006108c98261085e565b6108d38185610869565b93506108e381856020860161087a565b6108ec816108ad565b840191505092915050565b6000602082019050818103600083015261091181846108be565b905092915050565b600080fd5b600080fd5b7f4e487b7100000000000000000000000000000000000000000000000000000000600052604160045260246000fd5b61095b826108ad565b810181811067ffffffffffffffff8211171561097a57610979610923565b5b80604052505050565b600061098d6107bf565b90506109998282610952565b919050565b600067ffffffffffffffff8211156109b9576109b8610923565b5b6109c2826108ad565b9050602081019050919050565b82818337600083830152505050565b60006109f16109ec8461099e565b610983565b905082815260208101848484011115610a0d57610a0c61091e565b5b610a188482856109cf565b509392505050565b600082601f830112610a3557610a34610919565b5b8135610a458482602086016109de565b91505092915050565b600060208284031215610a6457610a636107c9565b5b600082013567ffffffffffffffff811115610a8257610a816107ce565b5b610a8e84828501610a20565b91505092915050565b600081519050919050565b600082825260208201905092915050565b6000819050602082019050919050565b6000819050919050565b610ad681610ac3565b82525050565b6000610ae88383610acd565b60208301905092915050565b6000602082019050919050565b6000610b0c82610a97565b610b168185610aa2565b9350610b2183610ab3565b8060005b83811015610b52578151610b398882610adc565b9750610b4483610af4565b925050600181019050610b25565b5085935050505092915050565b60006020820190508181036000830152610b798184610b01565b905092915050565b610b8a81610ac3565b8114610b9557600080fd5b50565b600081359050610ba781610b81565b92915050565b600060208284031215610bc357610bc26107c9565b5b6000610bd184828501610b98565b91505092915050565b610be381610ac3565b82525050565b6000602082019050610bfe6000830184610bda565b92915050565b600067ffffffffffffffff821115610c1f57610c1e610923565b5b602082029050602081019050919050565b600080fd5b6000610c48610c4384610c04565b610983565b90508083825260208201905060208402830185811115610c6b57610c6a610c30565b5b835b81811015610c945780610c808882610b98565b845260208401935050602081019050610c6d565b5050509392505050565b600082601f830112610cb357610cb2610919565b5b8135610cc3848260208601610c35565b91505092915050565b60008060408385031215610ce357610ce26107c9565b5b600083013567ffffffffffffffff811115610d0157610d006107ce565b5b610d0d85828601610a20565b925050602083013567ffffffffffffffff811115610d2e57610d2d6107ce565b5b610d3a85828601610c9e565b9150509250929050565b60008060408385031215610d5b57610d5a6107c9565b5b600083013567ffffffffffffffff811115610d7957610d786107ce565b5b610d8585828601610a20565b9250506020610d9685828601610b98565b9150509250929050565b60008115159050919050565b610db581610da0565b82525050565b6000602082019050610dd06000830184610dac565b92915050565b7f4e487b7100000000000000000000000000000000000000000000000000000000600052602260045260246000fd5b60006002820490506001821680610e1d57607f821691505b60208210811415610e3157610e30610dd6565b5b50919050565b600081905092915050565b6000610e4d8261085e565b610e578185610e37565b9350610e6781856020860161087a565b80840191505092915050565b6000610e7f8284610e42565b915081905092915050565b7f4e487b7100000000000000000000000000000000000000000000000000000000600052603260045260246000fd5b7f4e487b7100000000000000000000000000000000000000000000000000000000600052601160045260246000fd5b6000610ef382610ac3565b91507fffffffffffffffffffffffffffffffffffffffffffffffffffffffffffffffff821415610f2657610f25610eb9565b5b60018201905091905056fea26469706673582212207a8b32ef2818944b9c0696669fe784e39e7b55845be63829332e3b9303dfb73964736f6c634300080b0033",
  "immutableReferences": {},
  "source": "// SPDX-License-Identifier: MIT\npragma solidity >=0.7.0 <0.9.0;\n\ncontract rootVerify {\n\n    receive() external payable {\n    }\n\n    struct dipper {\n        string d_name; \n        uint currentLocation;\n        string[] myRoots;\n    }\n\n    struct root {\n        string r_name;\n        uint[] rootHashs;\n    }\n\n    mapping(address => dipper) dipperList;\n    mapping(string => root) rootList;\n\n    function setRoot(string memory _r_name, uint[] memory _rootLocation) public {\n        rootList[_r_name]= root(_r_name,_rootLocation);\n        dipperList[msg.sender].myRoots.push(_r_name);\n    }\n\n    function getRootName(string memory _r_name) public view returns(string memory){\n        return rootList[_r_name].r_name;\n    }\n    \n    function getRootHashs(string memory _r_name) public view returns(uint[] memory) {\n        return rootList[_r_name].rootHashs;\n    }\n\n    function setDipper(string memory _d_name) public {\n        dipperList[msg.sender].d_name = _d_name;\n    }\n\n    function getDipper(address _addr) public view returns(string memory){\n        return dipperList[_addr].d_name;\n    }\n\n    function currentLocation(uint _currentLocation) public returns(uint) {\n        dipperList[msg.sender].currentLocation = _currentLocation;\n        return dipperList[msg.sender].currentLocation;\n    }\n\n    function verifyLocation(string memory _r_name, uint _currentLocation) public returns(bool){\n        currentLocation(_currentLocation);\n        uint [] memory roots = rootList[_r_name].rootHashs;\n        uint numOfDup = 0;\n        for(uint i = 0 ; i<roots.length; i++) {\n            roots[i] == _currentLocation ? numOfDup++ : numOfDup;\n        } //  require & transfer   \n        return (numOfDup !=0 ? true: false);\n    }\n}",
  "sourcePath": "/Users/b_oxygen/Desktop/project_dipper/contracts/root_verify.sol",
  "compiler": {
    "name": "solc",
    "version": "0.8.11+commit.d7f03943.Emscripten.clang"
  },
  "schemaVersion": "3.4.4",
  "updatedAt": "2022-12-18T18:52:39.660Z",
  "networkType": "ethereum",
  "devdoc": {
    "kind": "dev",
    "methods": {},
    "version": 1
  },
  "userdoc": {
    "kind": "user",
    "methods": {},
    "version": 1
  }
}